{
  "contracts/BridgeValidator.sol": {
    "BridgeValidator": {
      "abi": [
        {
          "inputs": [
            {
              "internalType": "address",
              "name": "_validator",
              "type": "address"
            }
          ],
          "stateMutability": "nonpayable",
          "type": "constructor"
        },
        {
          "inputs": [
            {
              "internalType": "uint256",
              "name": "sourceChainId",
              "type": "uint256"
            },
            {
              "internalType": "uint256",
              "name": "destinationChainId",
              "type": "uint256"
            },
            {
              "internalType": "address",
              "name": "token",
              "type": "address"
            },
            {
              "internalType": "uint256",
              "name": "amount",
              "type": "uint256"
            },
            {
              "internalType": "address",
              "name": "recipient",
              "type": "address"
            },
            {
              "internalType": "bytes",
              "name": "signature",
              "type": "bytes"
            }
          ],
          "name": "validateTransaction",
          "outputs": [
            {
              "internalType": "bool",
              "name": "",
              "type": "bool"
            }
          ],
          "stateMutability": "view",
          "type": "function"
        }
      ],
      "evm": {
        "bytecode": {
          "linkReferences": {},
          "object": "60a060405234801561001057600080fd5b50604051610884380380610884833981810160405281019061003291906100cf565b8073ffffffffffffffffffffffffffffffffffffffff1660808173ffffffffffffffffffffffffffffffffffffffff1681525050506100fc565b600080fd5b600073ffffffffffffffffffffffffffffffffffffffff82169050919050565b600061009c82610071565b9050919050565b6100ac81610091565b81146100b757600080fd5b50565b6000815190506100c9816100a3565b92915050565b6000602082840312156100e5576100e461006c565b5b60006100f3848285016100ba565b91505092915050565b60805161076e610116600039600060a3015261076e6000f3fe608060405234801561001057600080fd5b506004361061002b5760003560e01c8063eaf442ab14610030575b600080fd5b61004a600480360381019061004591906103fc565b610060565b60405161005791906104c0565b60405180910390f35b600080878786888760405160200161007c959493929190610544565b604051602081830303815290604052805190602001209050600061009f82610107565b90507f000000000000000000000000000000000000000000000000000000000000000073ffffffffffffffffffffffffffffffffffffffff166100e28286610137565b73ffffffffffffffffffffffffffffffffffffffff1614925050509695505050505050565b60008160405160200161011a9190610625565b604051602081830303815290604052805190602001209050919050565b600080600080610146856101a6565b9250925092506001868285856040516000815260200160405260405161016f9493929190610676565b6020604051602081039080840390855afa158015610191573d6000803e3d6000fd5b50505060206040510351935050505092915050565b600080600060208451146101ef576040517f08c379a00000000000000000000000000000000000000000000000000000000081526004016101e690610718565b60405180910390fd5b6020840151925060408401519150606084015160001a90509193909250565b6000604051905090565b600080fd5b600080fd5b6000819050919050565b61023581610222565b811461024057600080fd5b50565b6000813590506102528161022c565b92915050565b600073ffffffffffffffffffffffffffffffffffffffff82169050919050565b600061028382610258565b9050919050565b61029381610278565b811461029e57600080fd5b50565b6000813590506102b08161028a565b92915050565b600080fd5b600080fd5b6000601f19601f8301169050919050565b7f4e487b7100000000000000000000000000000000000000000000000000000000600052604160045260246000fd5b610309826102c0565b810181811067ffffffffffffffff82111715610328576103276102d1565b5b80604052505050565b600061033b61020e565b90506103478282610300565b919050565b600067ffffffffffffffff821115610367576103666102d1565b5b610370826102c0565b9050602081019050919050565b82818337600083830152505050565b600061039f61039a8461034c565b610331565b9050828152602081018484840111156103bb576103ba6102bb565b5b6103c684828561037d565b509392505050565b600082601f8301126103e3576103e26102b6565b5b81356103f384826020860161038c565b91505092915050565b60008060008060008060c0878903121561041957610418610218565b5b600061042789828a01610243565b965050602061043889828a01610243565b955050604061044989828a016102a1565b945050606061045a89828a01610243565b935050608061046b89828a016102a1565b92505060a087013567ffffffffffffffff81111561048c5761048b61021d565b5b61049889828a016103ce565b9150509295509295509295565b60008115159050919050565b6104ba816104a5565b82525050565b60006020820190506104d560008301846104b1565b92915050565b6000819050919050565b6104f66104f182610222565b6104db565b82525050565b60008160601b9050919050565b6000610514826104fc565b9050919050565b600061052682610509565b9050919050565b61053e61053982610278565b61051b565b82525050565b600061055082886104e5565b60208201915061056082876104e5565b60208201915061057082866104e5565b602082019150610580828561052d565b601482019150610590828461052d565b6014820191508190509695505050505050565b600081905092915050565b7f19457468657265756d205369676e6564204d6573736167653a0a333200000000600082015250565b60006105e4601c836105a3565b91506105ef826105ae565b601c82019050919050565b6000819050919050565b6000819050919050565b61061f61061a826105fa565b610604565b82525050565b6000610630826105d7565b915061063c828461060e565b60208201915081905092915050565b610654816105fa565b82525050565b600060ff82169050919050565b6106708161065a565b82525050565b600060808201905061068b600083018761064b565b6106986020830186610667565b6106a5604083018561064b565b6106b2606083018461064b565b95945050505050565b600082825260208201905092915050565b7f496e76616c6964207369676e6174757265206c656e6774680000000000000000600082015250565b60006107026018836106bb565b915061070d826106cc565b602082019050919050565b60006020820190508181036000830152610731816106f5565b905091905056fea26469706673582212200319fcbbff6e7eaf20d9f1993f88c719be13d58891b941eb0cc3219ed5ba294c64736f6c634300081c0033",
          "opcodes": "PUSH1 0xA0 PUSH1 0x40 MSTORE CALLVALUE DUP1 ISZERO PUSH2 0x10 JUMPI PUSH1 0x0 DUP1 REVERT JUMPDEST POP PUSH1 0x40 MLOAD PUSH2 0x884 CODESIZE SUB DUP1 PUSH2 0x884 DUP4 CODECOPY DUP2 DUP2 ADD PUSH1 0x40 MSTORE DUP2 ADD SWAP1 PUSH2 0x32 SWAP2 SWAP1 PUSH2 0xCF JUMP JUMPDEST DUP1 PUSH20 0xFFFFFFFFFFFFFFFFFFFFFFFFFFFFFFFFFFFFFFFF AND PUSH1 0x80 DUP2 PUSH20 0xFFFFFFFFFFFFFFFFFFFFFFFFFFFFFFFFFFFFFFFF AND DUP2 MSTORE POP POP POP PUSH2 0xFC JUMP JUMPDEST PUSH1 0x0 DUP1 REVERT JUMPDEST PUSH1 0x0 PUSH20 0xFFFFFFFFFFFFFFFFFFFFFFFFFFFFFFFFFFFFFFFF DUP3 AND SWAP1 POP SWAP2 SWAP1 POP JUMP JUMPDEST PUSH1 0x0 PUSH2 0x9C DUP3 PUSH2 0x71 JUMP JUMPDEST SWAP1 POP SWAP2 SWAP1 POP JUMP JUMPDEST PUSH2 0xAC DUP2 PUSH2 0x91 JUMP JUMPDEST DUP2 EQ PUSH2 0xB7 JUMPI PUSH1 0x0 DUP1 REVERT JUMPDEST POP JUMP JUMPDEST PUSH1 0x0 DUP2 MLOAD SWAP1 POP PUSH2 0xC9 DUP2 PUSH2 0xA3 JUMP JUMPDEST SWAP3 SWAP2 POP POP JUMP JUMPDEST PUSH1 0x0 PUSH1 0x20 DUP3 DUP5 SUB SLT ISZERO PUSH2 0xE5 JUMPI PUSH2 0xE4 PUSH2 0x6C JUMP JUMPDEST JUMPDEST PUSH1 0x0 PUSH2 0xF3 DUP5 DUP3 DUP6 ADD PUSH2 0xBA JUMP JUMPDEST SWAP2 POP POP SWAP3 SWAP2 POP POP JUMP JUMPDEST PUSH1 0x80 MLOAD PUSH2 0x76E PUSH2 0x116 PUSH1 0x0 CODECOPY PUSH1 0x0 PUSH1 0xA3 ADD MSTORE PUSH2 0x76E PUSH1 0x0 RETURN INVALID PUSH1 0x80 PUSH1 0x40 MSTORE CALLVALUE DUP1 ISZERO PUSH2 0x10 JUMPI PUSH1 0x0 DUP1 REVERT JUMPDEST POP PUSH1 0x4 CALLDATASIZE LT PUSH2 0x2B JUMPI PUSH1 0x0 CALLDATALOAD PUSH1 0xE0 SHR DUP1 PUSH4 0xEAF442AB EQ PUSH2 0x30 JUMPI JUMPDEST PUSH1 0x0 DUP1 REVERT JUMPDEST PUSH2 0x4A PUSH1 0x4 DUP1 CALLDATASIZE SUB DUP2 ADD SWAP1 PUSH2 0x45 SWAP2 SWAP1 PUSH2 0x3FC JUMP JUMPDEST PUSH2 0x60 JUMP JUMPDEST PUSH1 0x40 MLOAD PUSH2 0x57 SWAP2 SWAP1 PUSH2 0x4C0 JUMP JUMPDEST PUSH1 0x40 MLOAD DUP1 SWAP2 SUB SWAP1 RETURN JUMPDEST PUSH1 0x0 DUP1 DUP8 DUP8 DUP7 DUP9 DUP8 PUSH1 0x40 MLOAD PUSH1 0x20 ADD PUSH2 0x7C SWAP6 SWAP5 SWAP4 SWAP3 SWAP2 SWAP1 PUSH2 0x544 JUMP JUMPDEST PUSH1 0x40 MLOAD PUSH1 0x20 DUP2 DUP4 SUB SUB DUP2 MSTORE SWAP1 PUSH1 0x40 MSTORE DUP1 MLOAD SWAP1 PUSH1 0x20 ADD KECCAK256 SWAP1 POP PUSH1 0x0 PUSH2 0x9F DUP3 PUSH2 0x107 JUMP JUMPDEST SWAP1 POP PUSH32 0x0 PUSH20 0xFFFFFFFFFFFFFFFFFFFFFFFFFFFFFFFFFFFFFFFF AND PUSH2 0xE2 DUP3 DUP7 PUSH2 0x137 JUMP JUMPDEST PUSH20 0xFFFFFFFFFFFFFFFFFFFFFFFFFFFFFFFFFFFFFFFF AND EQ SWAP3 POP POP POP SWAP7 SWAP6 POP POP POP POP POP POP JUMP JUMPDEST PUSH1 0x0 DUP2 PUSH1 0x40 MLOAD PUSH1 0x20 ADD PUSH2 0x11A SWAP2 SWAP1 PUSH2 0x625 JUMP JUMPDEST PUSH1 0x40 MLOAD PUSH1 0x20 DUP2 DUP4 SUB SUB DUP2 MSTORE SWAP1 PUSH1 0x40 MSTORE DUP1 MLOAD SWAP1 PUSH1 0x20 ADD KECCAK256 SWAP1 POP SWAP2 SWAP1 POP JUMP JUMPDEST PUSH1 0x0 DUP1 PUSH1 0x0 DUP1 PUSH2 0x146 DUP6 PUSH2 0x1A6 JUMP JUMPDEST SWAP3 POP SWAP3 POP SWAP3 POP PUSH1 0x1 DUP7 DUP3 DUP6 DUP6 PUSH1 0x40 MLOAD PUSH1 0x0 DUP2 MSTORE PUSH1 0x20 ADD PUSH1 0x40 MSTORE PUSH1 0x40 MLOAD PUSH2 0x16F SWAP5 SWAP4 SWAP3 SWAP2 SWAP1 PUSH2 0x676 JUMP JUMPDEST PUSH1 0x20 PUSH1 0x40 MLOAD PUSH1 0x20 DUP2 SUB SWAP1 DUP1 DUP5 SUB SWAP1 DUP6 GAS STATICCALL ISZERO DUP1 ISZERO PUSH2 0x191 JUMPI RETURNDATASIZE PUSH1 0x0 DUP1 RETURNDATACOPY RETURNDATASIZE PUSH1 0x0 REVERT JUMPDEST POP POP POP PUSH1 0x20 PUSH1 0x40 MLOAD SUB MLOAD SWAP4 POP POP POP POP SWAP3 SWAP2 POP POP JUMP JUMPDEST PUSH1 0x0 DUP1 PUSH1 0x0 PUSH1 0x20 DUP5 MLOAD EQ PUSH2 0x1EF JUMPI PUSH1 0x40 MLOAD PUSH32 0x8C379A000000000000000000000000000000000000000000000000000000000 DUP2 MSTORE PUSH1 0x4 ADD PUSH2 0x1E6 SWAP1 PUSH2 0x718 JUMP JUMPDEST PUSH1 0x40 MLOAD DUP1 SWAP2 SUB SWAP1 REVERT JUMPDEST PUSH1 0x20 DUP5 ADD MLOAD SWAP3 POP PUSH1 0x40 DUP5 ADD MLOAD SWAP2 POP PUSH1 0x60 DUP5 ADD MLOAD PUSH1 0x0 BYTE SWAP1 POP SWAP2 SWAP4 SWAP1 SWAP3 POP JUMP JUMPDEST PUSH1 0x0 PUSH1 0x40 MLOAD SWAP1 POP SWAP1 JUMP JUMPDEST PUSH1 0x0 DUP1 REVERT JUMPDEST PUSH1 0x0 DUP1 REVERT JUMPDEST PUSH1 0x0 DUP2 SWAP1 POP SWAP2 SWAP1 POP JUMP JUMPDEST PUSH2 0x235 DUP2 PUSH2 0x222 JUMP JUMPDEST DUP2 EQ PUSH2 0x240 JUMPI PUSH1 0x0 DUP1 REVERT JUMPDEST POP JUMP JUMPDEST PUSH1 0x0 DUP2 CALLDATALOAD SWAP1 POP PUSH2 0x252 DUP2 PUSH2 0x22C JUMP JUMPDEST SWAP3 SWAP2 POP POP JUMP JUMPDEST PUSH1 0x0 PUSH20 0xFFFFFFFFFFFFFFFFFFFFFFFFFFFFFFFFFFFFFFFF DUP3 AND SWAP1 POP SWAP2 SWAP1 POP JUMP JUMPDEST PUSH1 0x0 PUSH2 0x283 DUP3 PUSH2 0x258 JUMP JUMPDEST SWAP1 POP SWAP2 SWAP1 POP JUMP JUMPDEST PUSH2 0x293 DUP2 PUSH2 0x278 JUMP JUMPDEST DUP2 EQ PUSH2 0x29E JUMPI PUSH1 0x0 DUP1 REVERT JUMPDEST POP JUMP JUMPDEST PUSH1 0x0 DUP2 CALLDATALOAD SWAP1 POP PUSH2 0x2B0 DUP2 PUSH2 0x28A JUMP JUMPDEST SWAP3 SWAP2 POP POP JUMP JUMPDEST PUSH1 0x0 DUP1 REVERT JUMPDEST PUSH1 0x0 DUP1 REVERT JUMPDEST PUSH1 0x0 PUSH1 0x1F NOT PUSH1 0x1F DUP4 ADD AND SWAP1 POP SWAP2 SWAP1 POP JUMP JUMPDEST PUSH32 0x4E487B7100000000000000000000000000000000000000000000000000000000 PUSH1 0x0 MSTORE PUSH1 0x41 PUSH1 0x4 MSTORE PUSH1 0x24 PUSH1 0x0 REVERT JUMPDEST PUSH2 0x309 DUP3 PUSH2 0x2C0 JUMP JUMPDEST DUP2 ADD DUP2 DUP2 LT PUSH8 0xFFFFFFFFFFFFFFFF DUP3 GT OR ISZERO PUSH2 0x328 JUMPI PUSH2 0x327 PUSH2 0x2D1 JUMP JUMPDEST JUMPDEST DUP1 PUSH1 0x40 MSTORE POP POP POP JUMP JUMPDEST PUSH1 0x0 PUSH2 0x33B PUSH2 0x20E JUMP JUMPDEST SWAP1 POP PUSH2 0x347 DUP3 DUP3 PUSH2 0x300 JUMP JUMPDEST SWAP2 SWAP1 POP JUMP JUMPDEST PUSH1 0x0 PUSH8 0xFFFFFFFFFFFFFFFF DUP3 GT ISZERO PUSH2 0x367 JUMPI PUSH2 0x366 PUSH2 0x2D1 JUMP JUMPDEST JUMPDEST PUSH2 0x370 DUP3 PUSH2 0x2C0 JUMP JUMPDEST SWAP1 POP PUSH1 0x20 DUP2 ADD SWAP1 POP SWAP2 SWAP1 POP JUMP JUMPDEST DUP3 DUP2 DUP4 CALLDATACOPY PUSH1 0x0 DUP4 DUP4 ADD MSTORE POP POP POP JUMP JUMPDEST PUSH1 0x0 PUSH2 0x39F PUSH2 0x39A DUP5 PUSH2 0x34C JUMP JUMPDEST PUSH2 0x331 JUMP JUMPDEST SWAP1 POP DUP3 DUP2 MSTORE PUSH1 0x20 DUP2 ADD DUP5 DUP5 DUP5 ADD GT ISZERO PUSH2 0x3BB JUMPI PUSH2 0x3BA PUSH2 0x2BB JUMP JUMPDEST JUMPDEST PUSH2 0x3C6 DUP5 DUP3 DUP6 PUSH2 0x37D JUMP JUMPDEST POP SWAP4 SWAP3 POP POP POP JUMP JUMPDEST PUSH1 0x0 DUP3 PUSH1 0x1F DUP4 ADD SLT PUSH2 0x3E3 JUMPI PUSH2 0x3E2 PUSH2 0x2B6 JUMP JUMPDEST JUMPDEST DUP2 CALLDATALOAD PUSH2 0x3F3 DUP5 DUP3 PUSH1 0x20 DUP7 ADD PUSH2 0x38C JUMP JUMPDEST SWAP2 POP POP SWAP3 SWAP2 POP POP JUMP JUMPDEST PUSH1 0x0 DUP1 PUSH1 0x0 DUP1 PUSH1 0x0 DUP1 PUSH1 0xC0 DUP8 DUP10 SUB SLT ISZERO PUSH2 0x419 JUMPI PUSH2 0x418 PUSH2 0x218 JUMP JUMPDEST JUMPDEST PUSH1 0x0 PUSH2 0x427 DUP10 DUP3 DUP11 ADD PUSH2 0x243 JUMP JUMPDEST SWAP7 POP POP PUSH1 0x20 PUSH2 0x438 DUP10 DUP3 DUP11 ADD PUSH2 0x243 JUMP JUMPDEST SWAP6 POP POP PUSH1 0x40 PUSH2 0x449 DUP10 DUP3 DUP11 ADD PUSH2 0x2A1 JUMP JUMPDEST SWAP5 POP POP PUSH1 0x60 PUSH2 0x45A DUP10 DUP3 DUP11 ADD PUSH2 0x243 JUMP JUMPDEST SWAP4 POP POP PUSH1 0x80 PUSH2 0x46B DUP10 DUP3 DUP11 ADD PUSH2 0x2A1 JUMP JUMPDEST SWAP3 POP POP PUSH1 0xA0 DUP8 ADD CALLDATALOAD PUSH8 0xFFFFFFFFFFFFFFFF DUP2 GT ISZERO PUSH2 0x48C JUMPI PUSH2 0x48B PUSH2 0x21D JUMP JUMPDEST JUMPDEST PUSH2 0x498 DUP10 DUP3 DUP11 ADD PUSH2 0x3CE JUMP JUMPDEST SWAP2 POP POP SWAP3 SWAP6 POP SWAP3 SWAP6 POP SWAP3 SWAP6 JUMP JUMPDEST PUSH1 0x0 DUP2 ISZERO ISZERO SWAP1 POP SWAP2 SWAP1 POP JUMP JUMPDEST PUSH2 0x4BA DUP2 PUSH2 0x4A5 JUMP JUMPDEST DUP3 MSTORE POP POP JUMP JUMPDEST PUSH1 0x0 PUSH1 0x20 DUP3 ADD SWAP1 POP PUSH2 0x4D5 PUSH1 0x0 DUP4 ADD DUP5 PUSH2 0x4B1 JUMP JUMPDEST SWAP3 SWAP2 POP POP JUMP JUMPDEST PUSH1 0x0 DUP2 SWAP1 POP SWAP2 SWAP1 POP JUMP JUMPDEST PUSH2 0x4F6 PUSH2 0x4F1 DUP3 PUSH2 0x222 JUMP JUMPDEST PUSH2 0x4DB JUMP JUMPDEST DUP3 MSTORE POP POP JUMP JUMPDEST PUSH1 0x0 DUP2 PUSH1 0x60 SHL SWAP1 POP SWAP2 SWAP1 POP JUMP JUMPDEST PUSH1 0x0 PUSH2 0x514 DUP3 PUSH2 0x4FC JUMP JUMPDEST SWAP1 POP SWAP2 SWAP1 POP JUMP JUMPDEST PUSH1 0x0 PUSH2 0x526 DUP3 PUSH2 0x509 JUMP JUMPDEST SWAP1 POP SWAP2 SWAP1 POP JUMP JUMPDEST PUSH2 0x53E PUSH2 0x539 DUP3 PUSH2 0x278 JUMP JUMPDEST PUSH2 0x51B JUMP JUMPDEST DUP3 MSTORE POP POP JUMP JUMPDEST PUSH1 0x0 PUSH2 0x550 DUP3 DUP9 PUSH2 0x4E5 JUMP JUMPDEST PUSH1 0x20 DUP3 ADD SWAP2 POP PUSH2 0x560 DUP3 DUP8 PUSH2 0x4E5 JUMP JUMPDEST PUSH1 0x20 DUP3 ADD SWAP2 POP PUSH2 0x570 DUP3 DUP7 PUSH2 0x4E5 JUMP JUMPDEST PUSH1 0x20 DUP3 ADD SWAP2 POP PUSH2 0x580 DUP3 DUP6 PUSH2 0x52D JUMP JUMPDEST PUSH1 0x14 DUP3 ADD SWAP2 POP PUSH2 0x590 DUP3 DUP5 PUSH2 0x52D JUMP JUMPDEST PUSH1 0x14 DUP3 ADD SWAP2 POP DUP2 SWAP1 POP SWAP7 SWAP6 POP POP POP POP POP POP JUMP JUMPDEST PUSH1 0x0 DUP2 SWAP1 POP SWAP3 SWAP2 POP POP JUMP JUMPDEST PUSH32 0x19457468657265756D205369676E6564204D6573736167653A0A333200000000 PUSH1 0x0 DUP3 ADD MSTORE POP JUMP JUMPDEST PUSH1 0x0 PUSH2 0x5E4 PUSH1 0x1C DUP4 PUSH2 0x5A3 JUMP JUMPDEST SWAP2 POP PUSH2 0x5EF DUP3 PUSH2 0x5AE JUMP JUMPDEST PUSH1 0x1C DUP3 ADD SWAP1 POP SWAP2 SWAP1 POP JUMP JUMPDEST PUSH1 0x0 DUP2 SWAP1 POP SWAP2 SWAP1 POP JUMP JUMPDEST PUSH1 0x0 DUP2 SWAP1 POP SWAP2 SWAP1 POP JUMP JUMPDEST PUSH2 0x61F PUSH2 0x61A DUP3 PUSH2 0x5FA JUMP JUMPDEST PUSH2 0x604 JUMP JUMPDEST DUP3 MSTORE POP POP JUMP JUMPDEST PUSH1 0x0 PUSH2 0x630 DUP3 PUSH2 0x5D7 JUMP JUMPDEST SWAP2 POP PUSH2 0x63C DUP3 DUP5 PUSH2 0x60E JUMP JUMPDEST PUSH1 0x20 DUP3 ADD SWAP2 POP DUP2 SWAP1 POP SWAP3 SWAP2 POP POP JUMP JUMPDEST PUSH2 0x654 DUP2 PUSH2 0x5FA JUMP JUMPDEST DUP3 MSTORE POP POP JUMP JUMPDEST PUSH1 0x0 PUSH1 0xFF DUP3 AND SWAP1 POP SWAP2 SWAP1 POP JUMP JUMPDEST PUSH2 0x670 DUP2 PUSH2 0x65A JUMP JUMPDEST DUP3 MSTORE POP POP JUMP JUMPDEST PUSH1 0x0 PUSH1 0x80 DUP3 ADD SWAP1 POP PUSH2 0x68B PUSH1 0x0 DUP4 ADD DUP8 PUSH2 0x64B JUMP JUMPDEST PUSH2 0x698 PUSH1 0x20 DUP4 ADD DUP7 PUSH2 0x667 JUMP JUMPDEST PUSH2 0x6A5 PUSH1 0x40 DUP4 ADD DUP6 PUSH2 0x64B JUMP JUMPDEST PUSH2 0x6B2 PUSH1 0x60 DUP4 ADD DUP5 PUSH2 0x64B JUMP JUMPDEST SWAP6 SWAP5 POP POP POP POP POP JUMP JUMPDEST PUSH1 0x0 DUP3 DUP3 MSTORE PUSH1 0x20 DUP3 ADD SWAP1 POP SWAP3 SWAP2 POP POP JUMP JUMPDEST PUSH32 0x496E76616C6964207369676E6174757265206C656E6774680000000000000000 PUSH1 0x0 DUP3 ADD MSTORE POP JUMP JUMPDEST PUSH1 0x0 PUSH2 0x702 PUSH1 0x18 DUP4 PUSH2 0x6BB JUMP JUMPDEST SWAP2 POP PUSH2 0x70D DUP3 PUSH2 0x6CC JUMP JUMPDEST PUSH1 0x20 DUP3 ADD SWAP1 POP SWAP2 SWAP1 POP JUMP JUMPDEST PUSH1 0x0 PUSH1 0x20 DUP3 ADD SWAP1 POP DUP2 DUP2 SUB PUSH1 0x0 DUP4 ADD MSTORE PUSH2 0x731 DUP2 PUSH2 0x6F5 JUMP JUMPDEST SWAP1 POP SWAP2 SWAP1 POP JUMP INVALID LOG2 PUSH5 0x6970667358 0x22 SLT KECCAK256 SUB NOT 0xFC 0xBB SELFDESTRUCT PUSH15 0x7EAF20D9F1993F88C719BE13D58891 0xB9 COINBASE 0xEB 0xC 0xC3 0x21 SWAP15 0xD5 0xBA 0x29 0x4C PUSH5 0x736F6C6343 STOP ADDMOD SHR STOP CALLER "
        },
        "methodIdentifiers": {
          "validateTransaction(uint256,uint256,address,uint256,address,bytes)": "eaf442ab"
        }
      }
    }
  }
}