{
    "contractName": "Bridge",
    "abi": [
        {
            "inputs": [
                {
                    "internalType": "address",
                    "name": "_validator",
                    "type": "address"
                },
                {
                    "internalType": "uint256",
                    "name": "_chainId",
                    "type": "uint256"
                }
            ],
            "stateMutability": "nonpayable",
            "type": "constructor"
        },
        {
            "inputs": [],
            "name": "AccessControlBadConfirmation",
            "type": "error"
        },
        {
            "inputs": [
                {
                    "internalType": "address",
                    "name": "account",
                    "type": "address"
                },
                {
                    "internalType": "bytes32",
                    "name": "neededRole",
                    "type": "bytes32"
                }
            ],
            "name": "AccessControlUnauthorizedAccount",
            "type": "error"
        },
        {
            "inputs": [],
            "name": "EnforcedPause",
            "type": "error"
        },
        {
            "inputs": [],
            "name": "ExpectedPause",
            "type": "error"
        },
        {
            "inputs": [],
            "name": "ReentrancyGuardReentrantCall",
            "type": "error"
        },
        {
            "anonymous": false,
            "inputs": [
                {
                    "indexed": false,
                    "internalType": "address",
                    "name": "account",
                    "type": "address"
                }
            ],
            "name": "Paused",
            "type": "event"
        },
        {
            "anonymous": false,
            "inputs": [
                {
                    "indexed": true,
                    "internalType": "bytes32",
                    "name": "role",
                    "type": "bytes32"
                },
                {
                    "indexed": true,
                    "internalType": "bytes32",
                    "name": "previousAdminRole",
                    "type": "bytes32"
                },
                {
                    "indexed": true,
                    "internalType": "bytes32",
                    "name": "newAdminRole",
                    "type": "bytes32"
                }
            ],
            "name": "RoleAdminChanged",
            "type": "event"
        },
        {
            "anonymous": false,
            "inputs": [
                {
                    "indexed": true,
                    "internalType": "bytes32",
                    "name": "role",
                    "type": "bytes32"
                },
                {
                    "indexed": true,
                    "internalType": "address",
                    "name": "account",
                    "type": "address"
                },
                {
                    "indexed": true,
                    "internalType": "address",
                    "name": "sender",
                    "type": "address"
                }
            ],
            "name": "RoleGranted",
            "type": "event"
        },
        {
            "anonymous": false,
            "inputs": [
                {
                    "indexed": true,
                    "internalType": "bytes32",
                    "name": "role",
                    "type": "bytes32"
                },
                {
                    "indexed": true,
                    "internalType": "address",
                    "name": "account",
                    "type": "address"
                },
                {
                    "indexed": true,
                    "internalType": "address",
                    "name": "sender",
                    "type": "address"
                }
            ],
            "name": "RoleRevoked",
            "type": "event"
        },
        {
            "anonymous": false,
            "inputs": [
                {
                    "indexed": true,
                    "internalType": "address",
                    "name": "token",
                    "type": "address"
                },
                {
                    "indexed": true,
                    "internalType": "address",
                    "name": "sender",
                    "type": "address"
                },
                {
                    "indexed": false,
                    "internalType": "uint256",
                    "name": "amount",
                    "type": "uint256"
                }
            ],
            "name": "TokensLocked",
            "type": "event"
        },
        {
            "anonymous": false,
            "inputs": [
                {
                    "indexed": true,
                    "internalType": "address",
                    "name": "token",
                    "type": "address"
                },
                {
                    "indexed": true,
                    "internalType": "address",
                    "name": "recipient",
                    "type": "address"
                },
                {
                    "indexed": false,
                    "internalType": "uint256",
                    "name": "amount",
                    "type": "uint256"
                }
            ],
            "name": "TokensReleased",
            "type": "event"
        },
        {
            "anonymous": false,
            "inputs": [
                {
                    "indexed": true,
                    "internalType": "bytes32",
                    "name": "txHash",
                    "type": "bytes32"
                },
                {
                    "indexed": true,
                    "internalType": "address",
                    "name": "recipient",
                    "type": "address"
                },
                {
                    "indexed": false,
                    "internalType": "uint256",
                    "name": "amount",
                    "type": "uint256"
                }
            ],
            "name": "TransactionProcessed",
            "type": "event"
        },
        {
            "anonymous": false,
            "inputs": [
                {
                    "indexed": false,
                    "internalType": "address",
                    "name": "account",
                    "type": "address"
                }
            ],
            "name": "Unpaused",
            "type": "event"
        },
        {
            "inputs": [],
            "name": "DEFAULT_ADMIN_ROLE",
            "outputs": [
                {
                    "internalType": "bytes32",
                    "name": "",
                    "type": "bytes32"
                }
            ],
            "stateMutability": "view",
            "type": "function"
        },
        {
            "inputs": [],
            "name": "OPERATOR_ROLE",
            "outputs": [
                {
                    "internalType": "bytes32",
                    "name": "",
                    "type": "bytes32"
                }
            ],
            "stateMutability": "view",
            "type": "function"
        },
        {
            "inputs": [],
            "name": "chainId",
            "outputs": [
                {
                    "internalType": "uint256",
                    "name": "",
                    "type": "uint256"
                }
            ],
            "stateMutability": "view",
            "type": "function"
        },
        {
            "inputs": [
                {
                    "internalType": "bytes32",
                    "name": "role",
                    "type": "bytes32"
                }
            ],
            "name": "getRoleAdmin",
            "outputs": [
                {
                    "internalType": "bytes32",
                    "name": "",
                    "type": "bytes32"
                }
            ],
            "stateMutability": "view",
            "type": "function"
        },
        {
            "inputs": [
                {
                    "internalType": "bytes32",
                    "name": "role",
                    "type": "bytes32"
                },
                {
                    "internalType": "address",
                    "name": "account",
                    "type": "address"
                }
            ],
            "name": "grantRole",
            "outputs": [],
            "stateMutability": "nonpayable",
            "type": "function"
        },
        {
            "inputs": [
                {
                    "internalType": "bytes32",
                    "name": "role",
                    "type": "bytes32"
                },
                {
                    "internalType": "address",
                    "name": "account",
                    "type": "address"
                }
            ],
            "name": "hasRole",
            "outputs": [
                {
                    "internalType": "bool",
                    "name": "",
                    "type": "bool"
                }
            ],
            "stateMutability": "view",
            "type": "function"
        },
        {
            "inputs": [
                {
                    "internalType": "address",
                    "name": "token",
                    "type": "address"
                },
                {
                    "internalType": "uint256",
                    "name": "amount",
                    "type": "uint256"
                },
                {
                    "internalType": "uint256",
                    "name": "destinationChainId",
                    "type": "uint256"
                },
                {
                    "internalType": "address",
                    "name": "recipient",
                    "type": "address"
                }
            ],
            "name": "lockToken",
            "outputs": [],
            "stateMutability": "nonpayable",
            "type": "function"
        },
        {
            "inputs": [],
            "name": "pause",
            "outputs": [],
            "stateMutability": "nonpayable",
            "type": "function"
        },
        {
            "inputs": [],
            "name": "paused",
            "outputs": [
                {
                    "internalType": "bool",
                    "name": "",
                    "type": "bool"
                }
            ],
            "stateMutability": "view",
            "type": "function"
        },
        {
            "inputs": [
                {
                    "internalType": "uint256",
                    "name": "sourceChainId",
                    "type": "uint256"
                },
                {
                    "internalType": "address",
                    "name": "token",
                    "type": "address"
                },
                {
                    "internalType": "uint256",
                    "name": "amount",
                    "type": "uint256"
                },
                {
                    "internalType": "address",
                    "name": "recipient",
                    "type": "address"
                },
                {
                    "internalType": "bytes",
                    "name": "signature",
                    "type": "bytes"
                }
            ],
            "name": "releaseToken",
            "outputs": [],
            "stateMutability": "nonpayable",
            "type": "function"
        },
        {
            "inputs": [
                {
                    "internalType": "bytes32",
                    "name": "role",
                    "type": "bytes32"
                },
                {
                    "internalType": "address",
                    "name": "callerConfirmation",
                    "type": "address"
                }
            ],
            "name": "renounceRole",
            "outputs": [],
            "stateMutability": "nonpayable",
            "type": "function"
        },
        {
            "inputs": [
                {
                    "internalType": "bytes32",
                    "name": "role",
                    "type": "bytes32"
                },
                {
                    "internalType": "address",
                    "name": "account",
                    "type": "address"
                }
            ],
            "name": "revokeRole",
            "outputs": [],
            "stateMutability": "nonpayable",
            "type": "function"
        },
        {
            "inputs": [
                {
                    "internalType": "bytes4",
                    "name": "interfaceId",
                    "type": "bytes4"
                }
            ],
            "name": "supportsInterface",
            "outputs": [
                {
                    "internalType": "bool",
                    "name": "",
                    "type": "bool"
                }
            ],
            "stateMutability": "view",
            "type": "function"
        },
        {
            "inputs": [
                {
                    "internalType": "address",
                    "name": "",
                    "type": "address"
                },
                {
                    "internalType": "uint256",
                    "name": "",
                    "type": "uint256"
                }
            ],
            "name": "tokenBalances",
            "outputs": [
                {
                    "internalType": "uint256",
                    "name": "",
                    "type": "uint256"
                }
            ],
            "stateMutability": "view",
            "type": "function"
        },
        {
            "inputs": [
                {
                    "internalType": "bytes32",
                    "name": "",
                    "type": "bytes32"
                }
            ],
            "name": "transactions",
            "outputs": [
                {
                    "internalType": "uint256",
                    "name": "sourceChainId",
                    "type": "uint256"
                },
                {
                    "internalType": "uint256",
                    "name": "destinationChainId",
                    "type": "uint256"
                },
                {
                    "internalType": "address",
                    "name": "token",
                    "type": "address"
                },
                {
                    "internalType": "uint256",
                    "name": "amount",
                    "type": "uint256"
                },
                {
                    "internalType": "address",
                    "name": "recipient",
                    "type": "address"
                },
                {
                    "internalType": "bool",
                    "name": "processed",
                    "type": "bool"
                }
            ],
            "stateMutability": "view",
            "type": "function"
        },
        {
            "inputs": [],
            "name": "unpause",
            "outputs": [],
            "stateMutability": "nonpayable",
            "type": "function"
        },
        {
            "inputs": [],
            "name": "validator",
            "outputs": [
                {
                    "internalType": "contract IBridgeValidator",
                    "name": "",
                    "type": "address"
                }
            ],
            "stateMutability": "view",
            "type": "function"
        }
    ],
    "bytecode": "60c0346100b657601f6110c038819003918201601f19168301916001600160401b038311848410176100ba5780849260409485528339810103126100b65780516001600160a01b03811691908290036100b6576020015190600160025560ff196003541660035560805260a052610075336100ce565b5061007f33610144565b50604051610e8890816101d882396080518181816103d70152610acd015260a05181818161018b015281816102d701526107450152f35b5f80fd5b634e487b7160e01b5f52604160045260245ffd5b6001600160a01b0381165f9081525f5160206110a05f395f51905f52602052604090205460ff1661013f576001600160a01b03165f8181525f5160206110a05f395f51905f5260205260408120805460ff191660011790553391905f5160206110605f395f51905f528180a4600190565b505f90565b6001600160a01b0381165f9081525f5160206110805f395f51905f52602052604090205460ff1661013f576001600160a01b03165f8181525f5160206110805f395f51905f5260205260408120805460ff191660011790553391907f97667070c54ef182b0f5858b034beac1b6f3089aa2d3188bb1e8929f4fa9b929905f5160206110605f395f51905f529080a460019056fe6080806040526004361015610012575f80fd5b5f3560e01c90816301ffc9a714610bb157508063248a9ca314610b7e5780632f2ff15d14610b4057806336568abe14610afc5780633a5381b514610ab85780633f4ba83a14610a5257806348ff566514610a0e5780635c975abb146109ec5780635f101dba146106f2578063642f2eaf1461067f5780638456cb59146106265780638cfcbc66146101f757806391d14854146101ae5780639a8a059214610174578063a217fddf1461015a578063d547741f146101155763f5b541a6146100d7575f80fd5b34610111575f3660031901126101115760206040517f97667070c54ef182b0f5858b034beac1b6f3089aa2d3188bb1e8929f4fa9b9298152f35b5f80fd5b3461011157604036600319011261011157610158600435610134610c04565b9061015361014e825f526004602052600160405f20015490565b610ccf565b610d95565b005b34610111575f3660031901126101115760206040515f8152f35b34610111575f3660031901126101115760206040517f00000000000000000000000000000000000000000000000000000000000000008152f35b34610111576040366003190112610111576101c7610c04565b6004355f52600460205260405f209060018060a01b03165f52602052602060ff60405f2054166040519015158152f35b346101115760a036600319011261011157600435610213610c04565b9060443591610220610c30565b926084359267ffffffffffffffff841161011157366023850112156101115783600401359367ffffffffffffffff8511610612576040519461026c601f8201601f191660200187610c46565b8086526020860191366024838301011161011157815f92602460209301853787010152610297610e19565b61029f610e37565b335f9081527f57018d00f0894f4c685bdd8ecad35c04cfd005a1a2fa559fc0e3d122bcf5b853602052604090205460ff16156105db577f000000000000000000000000000000000000000000000000000000000000000091604051602081019082825260018060a01b038716966001600160601b03199060601b16604082015284605482015285607482015260018060a01b038916986001600160601b03199060601b1660948201524260a882015260a8815261035d60c882610c46565b51902095865f525f60205260ff600460405f20015460a01c166105965760e4602092604051948593849263eaf442ab60e01b845260048401528760248401528960448401528860648401528b608484015260c060a48401525180918160c48501528484015e5f828201840152601f01601f191681010301817f00000000000000000000000000000000000000000000000000000000000000006001600160a01b03165afa908115610527575f91610577575b501561053257835f525f602052600460405f2001600160a01b60ff60a01b1982541617905560405163a9059cbb60e01b81528560048201528260248201526020816044815f885af18015610527576104fa575b50825f52600160205260405f20905f5260205260405f20908154918183039283116104e6577f8999d672f76ffda19fe9161b5838bb74423c647ebe63a0b04ce5d0076e08f80b936020938792557f3737f2a73c794dafe53d8aeea06810a9ebcf7167401b259406960e088e03f83084604051858152a3604051908152a36001600255005b634e487b7160e01b5f52601160045260245ffd5b61051b9060203d602011610520575b6105138183610c46565b810190610c68565b610462565b503d610509565b6040513d5f823e3d90fd5b60405162461bcd60e51b815260206004820152601d60248201527f496e76616c6964207472616e73616374696f6e207369676e61747572650000006044820152606490fd5b610590915060203d602011610520576105138183610c46565b8661040f565b60405162461bcd60e51b815260206004820152601d60248201527f5472616e73616374696f6e2070726f63657373656420616c72656164790000006044820152606490fd5b63e2517d3f60e01b5f52336004527f97667070c54ef182b0f5858b034beac1b6f3089aa2d3188bb1e8929f4fa9b92960245260445ffd5b634e487b7160e01b5f52604160045260245ffd5b34610111575f3660031901126101115761063e610c80565b610646610e37565b600160ff1960035416176003557f62e78cea01bee320cd4e420270b5ea74000d11b0c9f74754ebdbfc544b05a2586020604051338152a1005b34610111576020366003190112610111576004355f525f60205260c060405f2060ff81549160018101549060018060a01b03600282015416600460038301549201549260405195865260208601526040850152606084015260018060a01b038116608084015260a01c16151560a0820152f35b346101115760803660031901126101115761070b610c1a565b602435906044359061071b610c30565b91610724610e19565b61072c610e37565b83156109a7576001600160a01b038316908115610970577f00000000000000000000000000000000000000000000000000000000000000009283821461092b576040516323b872dd60e01b8152336004820152306024820152604481018790526001600160a01b03821695906020816064815f8b5af180156105275761090e575b506040519060208201928684528460408401526001600160601b03199060601b1660608301528760748301526001600160601b03199060601b1660948201524260a882015260a8815261080160c882610c46565b5190209060405160c081019181831067ffffffffffffffff8411176106125760409283528582526020808301918252828401888152606084018a8152608085019788525f60a080870182815298825281855287822096518755945160018088019190915592516002870180546001600160a01b0319166001600160a01b03928316179055915160038701559751600495909501805497516001600160a81b0319909816959091169490941795151590921b60ff60a01b16949094179091558584528252808320938352929052208054808401919082106104e657556040519182527ee8ffc569c5f605999e8ad11ec9db2ef2254b66370f5b963df609fa59854eb260203393a36001600255005b6109269060203d602011610520576105138183610c46565b6107ad565b60405162461bcd60e51b815260206004820152601960248201527f496e76616c69642064657374696e6174696f6e20636861696e000000000000006044820152606490fd5b60405162461bcd60e51b815260206004820152600f60248201526e496e76616c6964206164647265737360881b6044820152606490fd5b60405162461bcd60e51b815260206004820152601d60248201527f416d6f756e74206d7573742062652067726561746572207468616e20300000006044820152606490fd5b34610111575f36600319011261011157602060ff600354166040519015158152f35b34610111576040366003190112610111576001600160a01b03610a2f610c1a565b165f52600160205260405f206024355f52602052602060405f2054604051908152f35b34610111575f36600319011261011157610a6a610c80565b60035460ff811615610aa95760ff19166003557f5db9ee0a495bf2e6ff9c91a7834c1ba4fdd244a5e8aa4e537bd38aeae4b073aa6020604051338152a1005b638dfc202b60e01b5f5260045ffd5b34610111575f366003190112610111576040517f00000000000000000000000000000000000000000000000000000000000000006001600160a01b03168152602090f35b3461011157604036600319011261011157610b15610c04565b336001600160a01b03821603610b315761015890600435610d95565b63334bd91960e11b5f5260045ffd5b3461011157604036600319011261011157610158600435610b5f610c04565b90610b7961014e825f526004602052600160405f20015490565b610d09565b34610111576020366003190112610111576020610ba96004355f526004602052600160405f20015490565b604051908152f35b34610111576020366003190112610111576004359063ffffffff60e01b821680920361011157602091637965db0b60e01b8114908115610bf3575b5015158152f35b6301ffc9a760e01b14905083610bec565b602435906001600160a01b038216820361011157565b600435906001600160a01b038216820361011157565b606435906001600160a01b038216820361011157565b90601f8019910116810190811067ffffffffffffffff82111761061257604052565b90816020910312610111575180151581036101115790565b335f9081527f17ef568e3e12ab5b9c7254a8d58478811de00f9e6eb34345acd53bf8fd09d3ec602052604090205460ff1615610cb857565b63e2517d3f60e01b5f52336004525f60245260445ffd5b5f81815260046020908152604080832033845290915290205460ff1615610cf35750565b63e2517d3f60e01b5f523360045260245260445ffd5b5f8181526004602090815260408083206001600160a01b038616845290915290205460ff16610d8f575f8181526004602090815260408083206001600160a01b0395909516808452949091528120805460ff19166001179055339291907f2f8788117e7eff1d82e926ec794901d17c78024a50270940304540a733656f0d9080a4600190565b50505f90565b5f8181526004602090815260408083206001600160a01b038616845290915290205460ff1615610d8f575f8181526004602090815260408083206001600160a01b0395909516808452949091528120805460ff19169055339291907ff6391f5c32d9c69d2a47ea670b442974b53935d1edc7fd64eb21e047a839171b9080a4600190565b6002805414610e285760028055565b633ee5aeb560e01b5f5260045ffd5b60ff60035416610e4357565b63d93c066560e01b5f5260045ffdfea2646970667358221220bfcfd1c796c22cdc9162390f2801369335810dcd0d1a27a3fb33db95b19802ab64736f6c634300081c00332f8788117e7eff1d82e926ec794901d17c78024a50270940304540a733656f0d57018d00f0894f4c685bdd8ecad35c04cfd005a1a2fa559fc0e3d122bcf5b85317ef568e3e12ab5b9c7254a8d58478811de00f9e6eb34345acd53bf8fd09d3ec",
    "sourcePath": "/home/phinelipy/Work/Blockchain/Learnings/bridge-X/contracts/Bridge.sol",
    "compiler": {
        "name": "solc",
        "version": "0.8.28+commit.7893614a"
    },
    "functionHashes": {
        "DEFAULT_ADMIN_ROLE()": "a217fddf",
        "OPERATOR_ROLE()": "f5b541a6",
        "chainId()": "9a8a0592",
        "getRoleAdmin(bytes32)": "248a9ca3",
        "grantRole(bytes32,address)": "2f2ff15d",
        "hasRole(bytes32,address)": "91d14854",
        "lockToken(address,uint256,uint256,address)": "5f101dba",
        "pause()": "8456cb59",
        "paused()": "5c975abb",
        "releaseToken(uint256,address,uint256,address,bytes)": "8cfcbc66",
        "renounceRole(bytes32,address)": "36568abe",
        "revokeRole(bytes32,address)": "d547741f",
        "supportsInterface(bytes4)": "01ffc9a7",
        "tokenBalances(address,uint256)": "48ff5665",
        "transactions(bytes32)": "642f2eaf",
        "unpause()": "3f4ba83a",
        "validator()": "3a5381b5"
    },
    "gasEstimates": {
        "creation": {
            "codeDepositCost": "744000",
            "executionCost": "infinite",
            "totalCost": "infinite"
        },
        "external": {
            "DEFAULT_ADMIN_ROLE()": "460",
            "OPERATOR_ROLE()": "502",
            "chainId()": "infinite",
            "getRoleAdmin(bytes32)": "2364",
            "grantRole(bytes32,address)": "33321",
            "hasRole(bytes32,address)": "2749",
            "lockToken(address,uint256,uint256,address)": "infinite",
            "pause()": "29964",
            "paused()": "2422",
            "releaseToken(uint256,address,uint256,address,bytes)": "infinite",
            "renounceRole(bytes32,address)": "28907",
            "revokeRole(bytes32,address)": "33604",
            "supportsInterface(bytes4)": "270",
            "tokenBalances(address,uint256)": "2602",
            "transactions(bytes32)": "11098",
            "unpause()": "27727",
            "validator()": "infinite"
        }
    }
}